:020000020000FC
:020000000EC030
:0200080054C4DE
:020012007DC4AB
:0200160032C4F2
:10001C001BC404E00EBF0FE50DBF5FEF6FEFF1E007
:10002C00E0E002E030E01FEF31931A95E9F70A9512
:10003C00D1F700E607B90FEC06B901E409BF05E0FA
:10004C0003BF00E005BD08E304BB00E201BBB1E067
:10005C00A3E50D9305BB0EE001BB302FFFD3E09958
:10006C00FECFF8940F9300E00EBB80E00FBBE09A3C
:10007C000DB300934A010F91789400914A010F3F00
:10008C0079F401E010E0E099FECFF8948F93812F82
:10009C008EBB80E08FBB0DBBE29AE09A8F91789477
:1000AC0000934D01E099FECFF8940F9301E00EBB45
:1000BC0080E00FBBE09A0DB300934A010F91789446
:1000CC0000914A010F3F79F403EE11E0E099FECF65
:1000DC00F8948F93812F8EBB80E08FBB0DBBE29A7F
:1000EC00E09A8F91789400934E01E099FECFF894AA
:1000FC000F9302E00EBB80E00FBBE09A0DB30093B0
:10010C004A010F91789400914A010F3F79F406EB64
:10011C0012E0E099FECFF8948F93812F8EBB80E094
:10012C008FBB0DBBE29AE09A8F91789400934F01AC
:10013C0000E00093200100932201E0E0F1E0C3E233
:10014C00D1E078940FEC06B9A3E5B1E00D91AD9A2E
:10015C0005BB92980F9307E806B90FB70F931F933F
:10016C002F93F894ABE1B2E000E00D9300915001B5
:10017C000D93A7EBB1E02D9110914E01011740F4B6
:10018C0010914F01011740F02C7F05E005BD08C010
:10019C00216005E005BD04C0226005E005BD00C07E
:1001AC002E9378942F911F910FEC06B90F910FBFDE
:1001BC000F9100914C010130C0F000914A01109157
:1001CC004B01E099FECFF8948F93812F8EBB80E08A
:1001DC008FBB0DBBE29AE09A8F9178940027009325
:1001EC004A0100934B0100934C0100912001002324
:1001FC0019F00FE006B901C0A5CF029110914D0185
:10020C000193011314C3009121010023E1F7F89429
:10021C00F1E0E0E00091200131910F931F93032F47
:10022C0018E060275695679520F400EA502701E006
:10023C0060271A95B9F71F910F910A9569F700E09D
:10024C005013F5C25613F3C2009120010A950A957A
:10025C0000932201F1E0E0E0D1E0C3E23191399367
:10026C00219142E00F930FB70F931F933F935F932E
:10027C006F93F894213079F0223071F0233069F0CB
:10028C00243061F0253059F0263059F02F3041F0F0
:10029C00203141F041F408D055D0A2D0D5D008D1AE
:1002AC0096D13FD11CD253D2B191A191B03079F4F7
:1002BC00A03068F0A43058F40191003049F4019159
:1002CC00013030F012E61A1B011710F402C04DD2A7
:1002DC005AD2B0934501A09346010093490129934A
:1002EC0010E03FEF1395083018F0085009F0D1F7E3
:1002FC0019934395312F0091460110E01395083066
:10030C0018F0085009F0D1F7B1E0A3E55D911A950A
:10031C00E9F76D91003021F0669557950A95E1F754
:10032C000E9100E0109149010894001F1A95E1F715
:10033C00502359934395562F6D913A95C9F7409395
:10034C0043013DC2B191A191B03079F4A03068F075
:10035C00A43658F40191003049F40191013030F089
:10036C0012E61A1B011710F402C0FFD10CD2B09385
:10037C004501A093460100934901299310E03FEFFA
:10038C001395083018F0085009F0D1F719934395DC
:10039C00312F0091460110E01395083018F00850E9
:1003AC0009F0D1F7B1E0A7EB5D911A95E9F76D91E2
:1003BC00003021F0669557950A95E1F70E9100E013
:1003CC00109149010894001F1A95E1F75023599395
:1003DC004395562F6D913A95C9F740934301EFC160
:1003EC00B191A191B03079F4A03068F0A23358F4F7
:1003FC0011910191103041F4013030F03A2F300F4F
:10040C00333310F402C0B1D1B0D1B0934501A093F5
:10041C004601009349012993000F0993009149016A
:10042C004395B2E0AFE730914601303021F01D9199
:10043C001D913A95E1F71D91199343951D911993CF
:10044C0043950A95C1F7BBC1B191A191B03079F434
:10045C00A03068F0A23358F411910191103041F49E
:10046C00013030F03A2F300F333310F402C07DD10D
:10047C007CD1B0934501A093460100934901299387
:10048C00000F0993009149014395B2E0ABE1309123
:10049C004601303081F21D911D913A95E1F71D9185
:1004AC00199343951D91199343950A95C1F787C1EB
:1004BC00B191A191B03099F5A03088F1A63078F5C2
:1004CC0011910191A53041F1003051F5103019F026
:1004DC001F3F09F025C02993B9934395A9934395E0
:1004EC00199343950993439561E05A2F503019F0B5
:1004FC00660F5A95E9F7B1E0A3E51F3F31F40D9172
:10050C00062B0E93409343015AC160950D9106231F
:10051C000E934093430153C11F3F11F47ACD25D163
:10052C0032D1B191A191B03039F4A03028F0A2337E
:10053C0018F41191019102C018D125D12993B993C6
:10054C004395A993439519934395099343953A2F52
:10055C00B2E0AFE7303029F0313091F03230F9F0C1
:10056C002DC0003051F3083F40F700934A0150E092
:10057C0050934B0151E050934C0100934D011EC020
:10058C0050914F010517C8F200934A0151E0509366
:10059C004B0151E050934C0100934E010FC0509110
:1005AC004E01051750F600934A0152E050934B014F
:1005BC0051E050934C0100934F0100C0303021F0BA
:1005CC005D915D913A95E1F71D930D93F8C0B19152
:1005DC00A191B03049F5A03038F1A53028F5B09391
:1005EC004501A093460101910030F9F400934701B5
:1005FC0001910130D0F016E01A1B0117B0F40093F2
:10060C004801119110934901103021F41395109366
:10061C0049010FC038E0319F301740F03850301787
:10062C0028F41093490105C0A0D0ADD0BAD0B1E0E8
:10063C00A3E50091460110914801709149013FEFEB
:10064C003191183050F55D91003079F056956795E1
:10065C000A95E1F700914601660F331F0A95E1F701
:10066C0000914601550F0A95E9F700914601010FDB
:10067C0018E0101B012F330F0A95E9F7012F60E0EA
:10068C00550F661F0A95E1F7012F669537950A9568
:10069C00E1F7B1E0A3E53C9306C0B1E0A3E56D91B1
:1006AC0063236E9318501F91109149011A95109362
:1006BC0049011F9321F62993009145010993439514
:1006CC000091460109934395009147010993439585
:1006DC0000914801099343954093430170C0B19137
:1006EC00A191B030A1F4A03090F0A23380F411911C
:1006FC000191103069F4013058F03A2F300F333338
:10070C0038F43191502F500F531711F402C02DD0E3
:10071C002CD0B0934501A093460130934901299305
:10072C00B9934395A993439519934395099343958D
:10073C00B2E0AFE750914601550F503019F06D9172
:10074C005A95E9F761916D933A95E1F738C03F936B
:10075C0030E8320F399331E03993309143013395BE
:10076C003093430143953F912AC03F9330E8320FB9
:10077C00399332E0399330914301339530934301EF
:10078C0043953F911CC03F9330E8320F399333E0CF
:10079C0039933091430133953093430143953F9105
:1007AC000EC03F9330E8320F399333E039933091D8
:1007BC00430133953093430143953F9100C06F91B2
:1007CC005F913F911F910F910FBF0F917894929A67
:1007DC00D1E0C3E2409343016FEF5FEF009143011F
:1007EC0039910F931F93032F18E060275695679547
:1007FC0020F400EA502701E060271A95B9F71F9101
:10080C000F910F930BB105FFFDCF3CB90F910A95DA
:10081C0039F7362F0F930BB105FFFDCF3CB90F9174
:10082C00352F0F930BB105FFFDCF3CB90F9100E0B5
:10083C000093220100932001C3E2D1E0E0E0F1E05B
:10084C006FEF5FEF78947ECC0F930FB70F9305B1DA
:10085C00009350010F910FBF0F911895F89400E081
:10086C0000BD07E609B908E90AB90EE800BD08950C
:10087C000F930FB70F933F934F93409120014F313C
:10088C0060F40BB107FFF4CF0CB101934395409387
:10089C00200144E04093210100C04F913F910F9102
:1008AC000FBF0F911895F8940F930FB70F931F93D9
:1008BC002F9300E005BDA7EBB1E020E000915001C3
:1008CC0010914F01011728F010914E01011728F4D7
:1008DC0008C01D9111FD22E004C01D9110FD21E006
:1008EC0000C0A3E5B1E00D91220F220F220F077E6D
:1008FC00022B0E932F911F910F910FBF0F91789494
:10090C0018954F934FB74F9340912101442319F001
:0E091C004A95409321014F914FBF4F9118957E
:00000001FF
