:020000020000FC
:020000000EC030
:020008006DC4C5
:0200120096C492
:020016004BC4D9
:10001C0004C404E00EBF0FE50DBF5FEF6FEFF0E01F
:10002C00E0E602E030E01FEF31931A95E9F70A950C
:10003C00D1F700E607B90FEC06B901E409BF05E0FA
:10004C0003BF00E005BD08E304BB01E007BBAD9AAC
:10005C00B1E0A3E50D9305BB0EE801BB302FE7D350
:10006C00B2E0A3E1E199FECFF8948F9380E08FBBCF
:10007C0080E08EBBE09A0DB300934A010F91789407
:10008C0000914A010F3F79F401E010E0E099FECFB6
:10009C00F8948F93812F8EBB80E08FBB0DBBE29ABF
:1000AC00E19A8F91789410E01D930D9300934D017C
:1000BC00E199FECFF8948F9380E08FBB81E08EBBEB
:1000CC00E09A0DB300934A010F91789400914A0184
:1000DC000F3F79F403EE11E0E099FECFF8948F9383
:1000EC00812F8EBB80E08FBB0DBBE29AE19A8F9182
:1000FC00789410E01D930D9300934E01E199FECF7F
:10010C00F8948F9380E08FBB82E08EBBE09A0DB3A6
:10011C0000934A010F91789400914A010F3F79F4B2
:10012C0006EB12E0E099FECFF8948F93812F8EBBF3
:10013C0080E08FBB0DBBE29AE19A8F91789410E02E
:10014C001D930D9300934F0100E000932001009349
:10015C002201E0E0F1E0C3E2D1E078940FEC06B9C3
:10016C00A3E5B1E00D91AD9A05BB92986AD30091CD
:10017C004C010130C0F000914A0110914B01E09903
:10018C00FECFF8948F93812F8EBB80E08FBB0DBB7D
:10019C00E29AE19A8F917894002700934A01009398
:1001AC004B0100934C0100912001002321F0979A00
:1001BC000FE006B901C0D2CF029110914D0101930D
:1001CC00011319C3009121010023E1F7F8949798CA
:1001DC00F1E0E0E00091200131910F931F93032F88
:1001EC0018E060275695679520F400EA502701E047
:1001FC0060271A95B9F71F910F910A9569F700E0DE
:10020C005013F9C25613F7C2009120010A950A95B2
:10021C0000932201F1E0E0E0D1E0C3E231913993A7
:10022C00219142E00F930FB70F931F933F935F936E
:10023C006F93F894213079F0223071F0233069F00B
:10024C00243061F0253059F0263059F02F3041F030
:10025C00203141F041F408D055D0A2D0D5D008D1EE
:10026C0096D13FD11CD253D2B191A191B03079F437
:10027C00A03068F0A43058F40191003049F4019199
:10028C00013030F01EE31A1B011710F402C04DD2DE
:10029C005AD2B0934501A09346010093490129938A
:1002AC0010E03FEF1395083018F0085009F0D1F723
:1002BC0019934395312F0091460110E013950830A6
:1002CC0018F0085009F0D1F7B1E0A3E55D911A954B
:1002DC00E9F76D91003021F0669557950A95E1F795
:1002EC000E9100E0109149010894001F1A95E1F756
:1002FC00502359934395562F6D913A95C9F74093D6
:10030C0043013DC2B191A191B03079F4A03068F0B5
:10031C00A03458F40191003049F40191013030F0CF
:10032C001EE31A1B011710F402C0FFD10CD2B093BC
:10033C004501A093460100934901299310E03FEF3A
:10034C001395083018F0085009F0D1F7199343951C
:10035C00312F0091460110E01395083018F0085029
:10036C0009F0D1F7B1E0A3E95D911A95E9F76D9128
:10037C00003021F0669557950A95E1F70E9100E053
:10038C00109149010894001F1A95E1F750235993D5
:10039C004395562F6D913A95C9F740934301EFC1A0
:1003AC00B191A191B03079F4A03068F0A03258F43A
:1003BC0011910191103041F4013030F03A2F300F8F
:1003CC00313210F402C0B1D1B0D1B0934501A09339
:1003DC004601009349012993000F099300914901AB
:1003EC004395B2E0A3E130914601303021F01D91EC
:1003FC001D913A95E1F71D91199343951D91199310
:10040C0043950A95C1F7BBC1B191A191B03079F474
:10041C00A03068F0A03258F411910191103041F4E1
:10042C00013030F03A2F300F313210F402C07DD150
:10043C007CD1B0934501A0934601009349012993C7
:10044C00000F0993009149014395B1E0A3ED309160
:10045C004601303081F21D911D913A95E1F71D91C5
:10046C00199343951D91199343950A95C1F787C12B
:10047C00B191A191B03099F5A03088F1A63078F502
:10048C0011910191A53041F1003051F5103019F066
:10049C001F3F09F025C02993B9934395A993439520
:1004AC00199343950993439561E05A2F503019F0F5
:1004BC00660F5A95E9F7B1E0A3E51F3F31F40D91B2
:1004CC00062B0E93409343015AC160950D91062360
:1004DC000E934093430153C11F3F11F49ACD25D184
:1004EC0032D1B191A191B03039F4A03028F0A032C2
:1004FC0018F41191019102C018D125D12993B99307
:10050C004395A993439519934395099343953A2F92
:10051C00B2E0A3E1303029F0313091F03230F9F013
:10052C002DC0003051F3083F40F700934A0150E0D2
:10053C0050934B0151E050934C0100934D011EC060
:10054C0050914F010517C8F200934A0151E05093A6
:10055C004B0151E050934C0100934E010FC0509150
:10056C004E01051750F600934A0152E050934B018F
:10057C0051E050934C0100934F0100C0303021F0FA
:10058C005D915D913A95E1F71D930D93F8C0B19192
:10059C00A191B03049F5A03038F1A53028F5B093D1
:1005AC004501A093460101910030F9F400934701F5
:1005BC0001910130D0F016E01A1B0117B0F4009332
:1005CC004801119110934901103021F413951093A7
:1005DC0049010FC038E0319F301740F038503017C8
:1005EC0028F41093490105C0A0D0ADD0BAD0B1E029
:1005FC00A3E50091460110914801709149013FEF2C
:10060C003191183050F55D91003079F05695679521
:10061C000A95E1F700914601660F331F0A95E1F741
:10062C0000914601550F0A95E9F700914601010F1B
:10063C0018E0101B012F330F0A95E9F7012F60E02A
:10064C00550F661F0A95E1F7012F669537950A95A8
:10065C00E1F7B1E0A3E53C9306C0B1E0A3E56D91F1
:10066C0063236E9318501F91109149011A951093A2
:10067C0049011F9321F62993009145010993439554
:10068C0000914601099343950091470109934395C5
:10069C0000914801099343954093430170C0B19177
:1006AC00A191B030A1F4A03090F0A03280F411915F
:1006BC000191103069F4013058F03A2F300F31327B
:1006CC0038F43191502F500F531711F402C02DD024
:1006DC002CD0B0934501A093460130934901299346
:1006EC00B9934395A99343951993439509934395CE
:1006FC00B2E0A3E150914601550F503019F06D91C5
:10070C005A95E9F761916D933A95E1F738C03F93AB
:10071C0030E8320F399331E03993309143013395FE
:10072C003093430143953F912AC03F9330E8320FF9
:10073C00399332E03993309143013395309343012F
:10074C0043953F911CC03F9330E8320F399333E00F
:10075C0039933091430133953093430143953F9145
:10076C000EC03F9330E8320F399333E03993309118
:10077C00430133953093430143953F9100C06F91F2
:10078C005F913F911F910F910FBF0F9178940000D3
:10079C0000000000929AC09AD1E0C3E2409343015A
:1007AC006FEF5FEF0091430139910F931F93032F6C
:1007BC0018E060275695679520F400EA502701E071
:1007CC0060271A95B9F71F910F910F930BB105FF85
:1007DC00FDCF3CB90F910A9539F7362F0F930BB11A
:1007EC0005FFFDCF3CB90F91352F0F930BB105FFD2
:1007FC00FDCF3CB90F9100E0009322010093200142
:10080C00C3E2D1E0E0E0F1E06FEF5FEFAFEFB1E01A
:10081C001196F1F7C0987894A1CC0F930FB70F9362
:10082C0005B1009350010F910FBF0F911895F894DB
:10083C0000E000BD07E609B908E90AB90EE800BDF9
:10084C0018950F9307E806B90FB70F931F932F93C3
:10085C00F894A3EDB1E000E00D93009150010D93DD
:10086C00A3E9B1E02D9110914E01011740F41091C4
:10087C004F01011740F02C7F05E005BD08C0216039
:10088C0005E005BD04C0226005E005BD00C02E9347
:10089C0078942F911F910FEC06B90F910FBF0F9108
:1008AC0008950F930FB70F933F934F9340912001EF
:1008BC004F3160F40BB107FFF4CF0CB101934395AA
:1008CC004093200144E04093210100C04F913F919F
:1008DC000F910FBF0F911895F8940F930FB70F93BB
:1008EC001F932F9300E005BDA3E9B1E020E0009138
:1008FC00500110914F01011728F010914E01011772
:10090C0028F408C01D9111FD22E004C01D9110FDBA
:10091C0021E000C0A3E5B1E00D91220F220F220FC0
:10092C00077E022B0E932F911F910F910FBF0F91EA
:10093C00789418954F934FB74F93409121014423CE
:10094C0019F04A95409321014F914FBF4F91189543
:00000001FF
