:020000020000FC
:0200000087C0B7
:04001000AFC5E5C5CE
:020016007CC5A7
:10001C000FC5E203E003DF03DD03DB03D903D803E1
:10002C00D603D403D103CF03CD03CA03C803C5033E
:10003C00C303C003BD03BA03B703B403B103AD03D9
:10004C00AA03A603A2039F039B03970392038E03A9
:10005C008A03850381037C03770372036D036803B2
:10006C0062035D03570352034C03460340033A03F8
:10007C0034032D03270320031A0313030C03050376
:10008C00FE02F702F002E902E102DA02D202CB022E
:10009C00C302BB02B402AC02A4029C0294028C0206
:1000AC0085027D0275026D0265025D0254024C02EE
:1000BC0044023C0234022D0225021D0215020D02DF
:1000CC000502FD01F601EE01E601DF01D701D001C9
:1000DC00C801C101BA01B201AB01A4019D01960195
:1000EC009001890182017B0175016E016801620139
:1000FC005C01560150014A0144013E0138013301B3
:10010C002D01280104E00EBF0FE50DBF5FEF6FEF6F
:10011C00F0E0E0E602E030E01FEF31931A95E9F7EA
:10012C000A95D1F700E407B90FEC06B905E003BF57
:10013C0000E005BD01E009BF00270FBD00E00EBDCA
:10014C0008E304BB01E007BBAD9A0EE801BB302FFE
:10015C007AD4B2E0A3E1E199FECF0F930FB70F93DE
:10016C0000E00FBF8F9380E08FBB80E08EBBE09AE6
:10017C008DB380934A0100000000000000008F91B5
:10018C000F910FBF0F91E099FECF00914A010F3FE5
:10019C0011F501E010E010934B0100934A01E19935
:1001AC00FECF0F930FB70F9300E00FBF7F938F938A
:1001BC0080E08FBB80914B018EBB80914A018DBB3F
:1001CC00E29AE19A00000000000000008F917F91FC
:1001DC000F910FBF0F9110E01D9300931402009329
:1001EC004E01E199FECF0F930FB70F9300E00FBFB5
:1001FC008F9380E08FBB81E08EBBE09A8DB38093B0
:10020C004A0100000000000000008F910F910FBF09
:10021C000F9110914A011F3FD9F0E199FECF0F9336
:10022C000FB70F9300E00FBF8F9380E08FBB82E07E
:10023C008EBBE09A8DB380934A0100000000000051
:10024C0000008F910F910FBF0F9100914A0114C0C4
:10025C00E199FECF00E00FBB01E00EBB10E0109364
:10026C001502212FDED3E199FECF02E00EBB04E193
:10027C0000931602202FD5D31093150210934F0123
:10028C000093160200935001E199FECF0F930FB724
:10029C000F9300E00FBF8F9380E08FBB83E08EBB8A
:1002AC00E09A8DB380934A0100000000000000002A
:1002BC008F910F910FBF0F9110914A011F3FD9F0F1
:1002CC00E199FECF0F930FB70F9300E00FBF8F9301
:1002DC0080E08FBB84E08EBBE09A8DB380934A01A3
:1002EC0000000000000000008F910F910FBF0F91D4
:1002FC0000914A0114C0E199FECF00E00FBB03E06E
:10030C000EBB10E010931702212F8BD3E199FECF77
:10031C0004E00EBB08E200931802202F82D3109346
:10032C001702109351010093180200935201E199A6
:10033C00FECF00E000934D010093200100932201B9
:10034C00E0E0F1E0C3E2D1E0AD9A78940FEC06B9AD
:10035C000091930100FDAB9A00FFAB9801FDAC9AA4
:10036C0001FFAC98929878D3F894000000000091AB
:10037C00140210914E01011741F010E01FBB10E068
:10038C001EBB202F4ED300934E0110914F010091B4
:10039C005001B0911502A09116021B1719F40A17FF
:1003AC0009F40EC000E00FBB01E00EBB2B2F39D3BC
:1003BC0002E00EBB2A2F35D3B0934F01A09350010E
:1003CC001091510100915201B0911702A0911802A5
:1003DC001B1719F40A1709F40EC000E00FBB03E059
:1003EC000EBB2B2F1ED304E00EBB2A2F1AD3B093B7
:1003FC005101A0935201789400912001002321F027
:10040C00979A0FE006B901C0A1CFF1E0E0E00191AD
:10041C00003029F010911402011709F0E4C2009188
:10042C0021010023E1F7F8949798F1E0E0E00091C6
:10043C00200131910F931F93032F18E060275695DD
:10044C00679520F400EA502701E060271A95B9F768
:10045C001F910F910A9569F700E05013C4C256130F
:10046C00C2C2009120010A950A9500932201F1E085
:10047C00E0E0D1E0C3E231913993219142E00F9356
:10048C000FB70F931F933F935F936F93213079F0C6
:10049C00223071F0233069F0243061F0253059F0AE
:1004AC00263059F02F3041F0203141F041F408C092
:1004BC0055C0A2C0D5C008C163C13FC1E9C120C2AB
:1004CC00B191A191B03079F4A03068F0A43058F417
:1004DC000191003049F40191013030F01EE31A1BF8
:1004EC00011710F402C01AC227C2B0934501A093A1
:1004FC00460100934901299310E03FEF1395083012
:10050C0018F0085009F0D1F719934395312F009149
:10051C00460110E01395083018F0085009F0D1F797
:10052C00B1E0A3E55D911A95E9F76D91003021F0EA
:10053C00669557950A95E1F70E9100E010914901E7
:10054C000894001F1A95E1F7502359934395562FA1
:10055C006D913A95C9F7409343010AC2B191A191AB
:10056C00B03079F4A03068F0A03458F40191003028
:10057C0049F40191013030F01EE31A1B011710F4FD
:10058C0002C0CCC1D9C1B0934501A09346010093E0
:10059C004901299310E03FEF1395083018F00850EB
:1005AC0009F0D1F719934395312F0091460110E0D2
:1005BC001395083018F0085009F0D1F7B1E0A3E911
:1005CC005D911A95E9F76D91003021F0669557957C
:1005DC000A95E1F70E9100E0109149010894001F73
:1005EC001A95E1F7502359934395562F6D913A95EF
:1005FC00C9F740934301BCC1B191A191B03079F4DA
:10060C00A03068F0A03258F411910191103041F4EF
:10061C00013030F03A2F300F313210F402C07EC16D
:10062C007DC1B0934501A0934601009349012993E4
:10063C00000F0993009149014395B2E0A3E1309179
:10064C004601303021F01D911D913A95E1F71D9135
:10065C00199343951D91199343950A95C1F788C138
:10066C00B191A191B03079F4A03068F0A03258F477
:10067C0011910191103041F4013030F03A2F300FCC
:10068C00313210F402C04AC149C1B0934501A09364
:10069C004601009349012993000F099300914901E8
:1006AC004395B1E0A3ED30914601303081F21D91BC
:1006BC001D913A95E1F71D91199343951D9119934D
:1006CC0043950A95C1F754C1B191A191B03099F5F8
:1006DC00A03088F1A63078F511910191A53041F147
:1006EC00003051F5103019F01F3F09F025C0299347
:1006FC00B9934395A99343951993439509934395BE
:10070C0061E05A2F503019F0660F5A95E9F7B1E0B5
:10071C00A3E51F3F31F40D91062B0E93409343013B
:10072C0027C160950D9106230E934093430120C180
:10073C001F3F11F4E7CCF2C0FFC0B191A191B030D2
:10074C0039F4A03028F0A03218F41191019102C0B4
:10075C00E5C0F2C02993B9934395A9934395199396
:10076C004395099343953A2FB2E0A3E100C0303092
:10077C0021F05D915D913A95E1F71D930D93F8C0D1
:10078C00B191A191B03049F5A03038F1A53028F5E0
:10079C00B0934501A093460101910030F9F4009308
:1007AC00470101910130D0F016E01A1B0117B0F48B
:1007BC0000934801119110934901103021F41395C5
:1007CC00109349010FC038E0319F301740F038507A
:1007DC00301728F41093490105C0A0C0ADC0BAC0B1
:1007EC00B1E0A3E5009146011091480170914901D7
:1007FC003FEF3191183050F55D91003079F05695FE
:10080C0067950A95E1F700914601660F331F0A952B
:10081C00E1F700914601550F0A95E9F70091460161
:10082C00010F18E0101B012F330F0A95E9F7012F68
:10083C0060E0550F661F0A95E1F7012F6695379515
:10084C000A95E1F7B1E0A3E53C9306C0B1E0A3E55E
:10085C006D9163236E9318501F91109149011A9555
:10086C00109349011F9321F6299300914501099397
:10087C0043950091460109934395009147010993D3
:10088C00439500914801099343954093430170C0EF
:10089C00B191A191B030A1F4A03090F0A03280F4CD
:1008AC0011910191103069F4013058F03A2F300F4A
:1008BC00313238F43191502F500F531711F402C0CC
:1008CC002DC02CC0B0934501A09346013093490133
:1008DC002993B9934395A9934395199343950993F8
:1008EC004395B2E0A3E150914601550F503019F0F9
:1008FC006D915A95E9F761916D933A95E1F738C08E
:10090C003F9330E8320F399331E039933091430102
:10091C0033953093430143953F912AC03F9330E880
:10092C00320F399332E03993309143013395309340
:10093C00430143953F911CC03F9330E8320F3993EC
:10094C0033E0399330914301339530934301439510
:10095C003F910EC03F9330E8320F399333E0399317
:10096C003091430133953093430143953F9100C03F
:10097C006F915F913F911F910F910FBF0F910000ED
:10098C0000000000929AC09AD1E0C3E24093430168
:10099C006FEF5FEF0091430139910F931F93032F7A
:1009AC0018E060275695679520F400EA502701E07F
:1009BC0060271A95B9F71F910F910F930BB105FF93
:1009CC00FDCF3CB90F910A9539F7362F0F930BB128
:1009DC0005FFFDCF3CB90F91352F0F930BB105FFE0
:1009EC00FDCF3CB90F91979800E000932201009342
:1009FC002001C3E2D1E0E0E0F1E06FEF5FEFAFEF99
:100A0C00BFEF1197F1F7AFEFBFEF1197AFEFBFEF5C
:100A1C001197F1F7AFEFBFEF1197F1F7C0987894FA
:100A2C0095CCE199FECF2DBBE29AE19A08950895F9
:100A3C000F931F9304B115B11093D5010093D601F8
:100A4C001F910F91189500E000BD00E109B908E96C
:100A5C000AB90EE800BD08950F930FB70F9300E08D
:100A6C000FBF1F932F93AF93BF93EF93FF9307E8A1
:100A7C0006B920914D01B091D501A091D601F0E0BD
:100A8C00EEE12FEF2395283729F0059115910A1BDC
:100A9C001B07C0F700270093D3012093D4011091BA
:100AAC00150200911602B091D301A091D4012091AE
:100ABC004D010A1B1B0720F020FD02C021603FD016
:100ACC0010911702009118020A1B1B0730F421FD2C
:100ADC0004C0226034D001C020E020934D012030AE
:100AEC0029F4209193012C7F209393010FEC06B9EC
:100AFC00FF91EF91BF91AF912F911F910F910FBF6C
:100B0C000F9108950F930FB70F9300E00FBF3F9312
:100B1C004F93409120014F3160F40BB107FFF2CF9E
:100B2C000CB1019343954093200144E04093210183
:100B3C0000C04F913F910F910FBF0F9118950F93DC
:100B4C0004E00EBD09B7046009BF0F9108950F931F
:100B5C0000E00EBD09B70B7F09BF00E00DBD0CBD59
:100B6C000F9108950F930FB70F9300E00FBF1F93D2
:100B7C002F933F93AF93BF93B091D301A091D40126
:100B8C00109115020091160220914D0130919301A4
:100B9C000A1B1B0718F020FF01C0316010911702CF
:100BAC00009118020A1B1B0728F421FF03C03260B6
:100BBC0001C030E03093930120E020934D01C7DF5A
:100BCC00BF91AF913F912F911F910F910FBF0F913B
:100BDC0018954F9340912101442319F04A95409365
:060BEC0021014F91189554
:00000001FF
